:0300000002093FB3
:0C093F00787FE4F6D8FD7581070208C03F
:10080000FFFFFFFFFFFDFFFA7FFCBFF15FF75FFA1D
:100810005FFD3FFE3FFE1FFECFFCEFFDE7F9F7F95E
:10082000FFFFFFFF3FFFBFFE0FFFD7FE5BFEB7FCE2
:10083000AFFC1FFD1FFF0FFEE7FCF7F9F7FBF3F31B
:10084000FFFFFFFFFFFF9FFF5FFF87FF6BFEABFE1A
:10085000DBFED7FE4FFF0FFF07FEF3FCFBFBFBFBAE
:10086000FFFFFFFF7FFE7FFD7FFE07F8F7F9EBFA42
:100870005BFDBBFE37FF0FFF07FEF3FCFBFBFBFB43
:10088000FFFFFFFFFFFF9FFF5FFF87FF6BFEABFEDA
:10089000DBFED7FE4FFF0FFF07FEF3FCFBFBFBFB6E
:1008A000FFFFFFFF3FFFBFFE0FFFD7FE5BFEB7FC62
:1008B000AFFC1FFD1FFF0FFEE7FCF7F9F7FBF3F39B
:100928007D19D3EF9400EE9400400BDDFE7D0AEFB5
:060938001F70EF1E80ECB1
:01093E002296
:1008C000E4FCE4FBE4FAEA540FF59075F020ECA4A4
:1008D000F58285F08375F002EA12094BE582240067
:1008E000F582E5833408F583E493F58075F020EC18
:1008F000A4F58285F08375F002EA12094BE58224A3
:1009000001F582E5833408F583E493F5A07F087E42
:10091000001209287580FF75A0FF0ABA10A80BBB4A
:0809200028A20CBC069C809883
:0C094B00A42582F582E5F03583F58322B7
:00000001FF
